{
  "_format": "hh-sol-artifact-1",
  "contractName": "Storage",
  "sourceName": "contracts/Storage.sol",
  "abi": [
    {
      "inputs": [],
      "stateMutability": "nonpayable",
      "type": "constructor"
    },
    {
      "inputs": [
        {
          "internalType": "string",
          "name": "x",
          "type": "string"
        }
      ],
      "name": "add",
      "outputs": [],
      "stateMutability": "nonpayable",
      "type": "function"
    },
    {
      "inputs": [],
      "name": "get",
      "outputs": [
        {
          "internalType": "string[]",
          "name": "",
          "type": "string[]"
        }
      ],
      "stateMutability": "view",
      "type": "function"
    },
    {
      "inputs": [
        {
          "internalType": "address",
          "name": "",
          "type": "address"
        },
        {
          "internalType": "uint256",
          "name": "",
          "type": "uint256"
        }
      ],
      "name": "ipfsHashes",
      "outputs": [
        {
          "internalType": "string",
          "name": "",
          "type": "string"
        }
      ],
      "stateMutability": "view",
      "type": "function"
    }
  ],
  "bytecode": "0x608060405234801561001057600080fd5b506100596040518060400160405280601381526020017f4465706c6f79696e6720612053746f726167650000000000000000000000000081525061005e60201b6102f91760201c565b6101e1565b6100fa81604051602401610072919061015f565b6040516020818303038152906040527f41304fac000000000000000000000000000000000000000000000000000000007bffffffffffffffffffffffffffffffffffffffffffffffffffffffff19166020820180517bffffffffffffffffffffffffffffffffffffffffffffffffffffffff83818316178352505050506100fd60201b60201c565b50565b60008151905060006a636f6e736f6c652e6c6f679050602083016000808483855afa5050505050565b600061013182610181565b61013b818561018c565b935061014b81856020860161019d565b610154816101d0565b840191505092915050565b600060208201905081810360008301526101798184610126565b905092915050565b600081519050919050565b600082825260208201905092915050565b60005b838110156101bb5780820151818401526020810190506101a0565b838111156101ca576000848401525b50505050565b6000601f19601f8301169050919050565b6108f6806101f06000396000f3fe608060405234801561001057600080fd5b50600436106100415760003560e01c80636d4ce63c14610046578063b0c8f9dc14610064578063bbee5ec814610080575b600080fd5b61004e6100b0565b60405161005b9190610668565b60405180910390f35b61007e6004803603810190610079919061052c565b6101c5565b005b61009a600480360381019061009591906104f0565b610240565b6040516100a7919061068a565b60405180910390f35b60606000803373ffffffffffffffffffffffffffffffffffffffff1673ffffffffffffffffffffffffffffffffffffffff168152602001908152602001600020805480602002602001604051908101604052809291908181526020016000905b828210156101bc57838290600052602060002001805461012f906107f1565b80601f016020809104026020016040519081016040528092919081815260200182805461015b906107f1565b80156101a85780601f1061017d576101008083540402835291602001916101a8565b820191906000526020600020905b81548152906001019060200180831161018b57829003601f168201915b505050505081526020019060010190610110565b50505050905090565b6000803373ffffffffffffffffffffffffffffffffffffffff1673ffffffffffffffffffffffffffffffffffffffff1681526020019081526020016000208190806001815401808255809150506001900390600052602060002001600090919091909150908051906020019061023c9291906103bb565b5050565b6000602052816000526040600020818154811061025c57600080fd5b90600052602060002001600091509150508054610278906107f1565b80601f01602080910402602001604051908101604052809291908181526020018280546102a4906107f1565b80156102f15780601f106102c6576101008083540402835291602001916102f1565b820191906000526020600020905b8154815290600101906020018083116102d457829003601f168201915b505050505081565b61038f8160405160240161030d919061068a565b6040516020818303038152906040527f41304fac000000000000000000000000000000000000000000000000000000007bffffffffffffffffffffffffffffffffffffffffffffffffffffffff19166020820180517bffffffffffffffffffffffffffffffffffffffffffffffffffffffff8381831617835250505050610392565b50565b60008151905060006a636f6e736f6c652e6c6f679050602083016000808483855afa5050505050565b8280546103c7906107f1565b90600052602060002090601f0160209004810192826103e95760008555610430565b82601f1061040257805160ff1916838001178555610430565b82800160010185558215610430579182015b8281111561042f578251825591602001919060010190610414565b5b50905061043d9190610441565b5090565b5b8082111561045a576000816000905550600101610442565b5090565b600061047161046c846106dd565b6106ac565b90508281526020810184848401111561048957600080fd5b6104948482856107af565b509392505050565b6000813590506104ab81610892565b92915050565b600082601f8301126104c257600080fd5b81356104d284826020860161045e565b91505092915050565b6000813590506104ea816108a9565b92915050565b6000806040838503121561050357600080fd5b60006105118582860161049c565b9250506020610522858286016104db565b9150509250929050565b60006020828403121561053e57600080fd5b600082013567ffffffffffffffff81111561055857600080fd5b610564848285016104b1565b91505092915050565b600061057983836105f6565b905092915050565b600061058c8261071d565b6105968185610740565b9350836020820285016105a88561070d565b8060005b858110156105e457848403895281516105c5858261056d565b94506105d083610733565b925060208a019950506001810190506105ac565b50829750879550505050505092915050565b600061060182610728565b61060b8185610751565b935061061b8185602086016107be565b61062481610881565b840191505092915050565b600061063a82610728565b6106448185610762565b93506106548185602086016107be565b61065d81610881565b840191505092915050565b600060208201905081810360008301526106828184610581565b905092915050565b600060208201905081810360008301526106a4818461062f565b905092915050565b6000604051905081810181811067ffffffffffffffff821117156106d3576106d2610852565b5b8060405250919050565b600067ffffffffffffffff8211156106f8576106f7610852565b5b601f19601f8301169050602081019050919050565b6000819050602082019050919050565b600081519050919050565b600081519050919050565b6000602082019050919050565b600082825260208201905092915050565b600082825260208201905092915050565b600082825260208201905092915050565b600061077e82610785565b9050919050565b600073ffffffffffffffffffffffffffffffffffffffff82169050919050565b6000819050919050565b82818337600083830152505050565b60005b838110156107dc5780820151818401526020810190506107c1565b838111156107eb576000848401525b50505050565b6000600282049050600182168061080957607f821691505b6020821081141561081d5761081c610823565b5b50919050565b7f4e487b7100000000000000000000000000000000000000000000000000000000600052602260045260246000fd5b7f4e487b7100000000000000000000000000000000000000000000000000000000600052604160045260246000fd5b6000601f19601f8301169050919050565b61089b81610773565b81146108a657600080fd5b50565b6108b2816107a5565b81146108bd57600080fd5b5056fea26469706673582212209accb9f3b42532b1ec82db511013143712bef8bf073fdc95169e506a318285c164736f6c63430008000033",
  "linkReferences": {},
  "deployedLinkReferences": {}
}